:100000000C948E010C94D5010C94D5010C94D5015F
:100010000C94D5010C94D5010C94D5010C94D50108
:100020000C94D5010C94D5010C945D1F0C943120D7
:100030000C94F6190C94D5010C94D5010C94D501AF
:100040000C94D5010C94D5010C94D5010C94D501D8
:100050000C94D5010C944D1A0C94D5010C94D50137
:100060000C94D5010C94D5010C94D5010C94D501B8
:100070000C94D5010C94D5010C94D5010C94D501A8
:100080000C94D5010C94D5010C94D5010C94D50198
:100090000C94D5010C94D5010C94D5010C94D50188
:1000A0000C94D5010C94D5010C94D5011E001F00B1
:1000B000200021002200230024002500260001004A
:1000C0000100010001000100010001000100010028
:1000D0000100010001000100010001000100010018
:1000E0000100010001000100010001000100010008
:1000F0000100010000000000000000002A2B280081
:1001000000000000000000000000000000000029C6
:10011000000000002C1E3420212224342627252E06
:10012000362D3738271E1F2021222324252633333E
:10013000362E37381F0405060708090A0B0C0D0E6A
:100140000F101112131415161718191A1B1C1D2F36
:100150003130232D350405060708090A0B0C0D0E56
:100160000F101112131415161718191A1B1C1D2F16
:100170003130354C0000000000000000000000009D
:10018000000000000000000000000000000000006F
:1001900000000000000000007E0F00D4FFFFFFC73A
:1001A000000000780A034700750073007400000027
:1001B0001C03410066007400650072006E006F0051
:1001C0006F006E004C0061006200730000000403C9
:1001D000090409025B00030100A0FA090400000100
:1001E00003010100092111010001224000070581DE
:1001F0000308000A0904010002030000000921119C
:1002000001000122220007058203200001070503E7
:10021000032000010904020001030000000921116C
:10022000010001227B000705840320000A1201104F
:1002300001000000086C61020001000102000106DB
:1002400060FF0961A1010962150026FF0095207574
:100250000881020963150026FF00952075089102A8
:10026000C005010902A10185020901A100050919C2
:10027000012908150025019508750181020501096C
:100280003009311581257F950275088106093815D9
:1002900081257F950175088106050C0A38021581B4
:1002A000257F950175088106C0C005010980A1015F
:1002B000850319012AB700150126B70095017510AD
:1002C0008100C0050C0901A101850419012AA002C1
:1002D000150126A002950175108100C005010906CF
:1002E000A101050719E029E7150025019508750109
:1002F00081029501750881010507190029FF150084
:1003000026FF009506750881000508190129059545
:100310000575019102950175039101C011241FBE5D
:10032000CFEFDAE0DEBFCDBF04B603FE27C0809179
:10033000310290913202A0913302B09134028730A1
:10034000904BA740B04BD1F4109231021092320280
:10035000109233021092340214BE84B7877F84BF98
:100360000FB6F894A8958091600088618093600032
:10037000109260000FBEE0E0F8E3099511E0A0E004
:10038000B1E0E6E2F5E402C005900D92AC38B107A9
:10039000D9F722E0ACE8B1E001C01D92A133B20769
:1003A000E1F70E941D1C0C945A220C94000081E07D
:1003B000089581E008950C94D90108950C94DD010D
:1003C0001F93CF93DF9300D000D00F92CDB7DEB74D
:1003D00049835A836B833091B40189819A813111A9
:1003E0001DC06623B9F02223A9F00E943717182FE9
:1003F000682F89819A810E94E21669817A81812F12
:100400000F900F900F900F900F90DF91CF911F9151
:100410000C94790B0E940F17182FEFCF0E943717FB
:1004200069817A81EDCFFC01262F40815181628163
:10043000738184810C94E001CF93DF93EC0160E041
:100440000E941302BE01DF91CF910C94DE018F92C6
:100450009F92AF92BF92CF92DF92EF92FF920F9353
:100460001F936B017C0181E090E0A0E0B0E04C01C3
:100470005D0104C0880C991CAA1CBB1C4A95D2F7CC
:10048000B501A4014C015D0104C0880C991CAA1C93
:10049000BB1C2A95D2F7482959296A297B2904C00F
:1004A000880F991FAA1FBB1F0A95D2F78A019B01CB
:1004B0000C211D212E213F21041715072607370780
:1004C00089F48C299D29AE29BF29BC01CD011F913A
:1004D0000F91FF90EF90DF90CF90BF90AF909F90E3
:1004E0008F90089580959095A095B0958C219D2131
:1004F000AE21BF21EACF0F93382F262F6091F7014D
:100500007091F8018091F9019091FA01042F432F25
:100510000E9427020F910C9420160E94C7050C948C
:10052000EC050C94EF0508950E94C4120E949302FA
:100530002FEF84E39CE0215080409040E1F700C021
:1005400000000C94711A0F931F93CF93DF938C01CB
:1005500061E00E941302EC01B8010E94CB098823DC
:10056000D9F1B801CE010E94DB018823A9F1B801BD
:10057000CE010E94B00C882379F1B801CE010E940F
:10058000020D882349F1B801CE010E94250E88236F
:1005900019F1F8018281882361F0CA35FDE5DF0792
:1005A00021F170F4C115ECE5DE07A1F0CE3DDC458C
:1005B000C9F0C801DF91CF911F910F910C94D70121
:1005C000CB358DE5D807A1F0CC35DD4591F70E94FC
:1005D000DE17EFCF0E94940280E0DF91CF911F9150
:1005E0000F9108950E944A19F7CF0E94E717E1CFB3
:1005F0000E94EA17DECFDF92EF92FF920F931F93D4
:10060000CF93DF93E82FF0E0EC50FF4FD490282FEA
:1006100026952695269530E0F901EC56FE4F04917B
:10062000877010E0082E02C0159507950A94E2F72E
:1006300001701127F901EC57FE4FE490F12C082EC0
:1006400002C0F594E7940A94E2F791E0E922FF24CE
:10065000F901EC58FE4FC491D0E002C0D595C79582
:100660008A95E2F7C170DD270115110519F081EEB9
:100670000E94BC0FE114F10419F086EE0E94BC0F39
:100680008D2D0E945010EF2819F086EE0E940A105E
:10069000012B19F081EE0E940A10CD2B51F08CE253
:1006A000DF91CF911F910F91FF90EF90DF900C940D
:1006B0005010DF91CF911F910F91FF90EF90DF903D
:1006C0000895EF92FF920F931F93CF93DF93EC0166
:1006D000162F0AE08881882309F454C0813009F07C
:1006E0004EC08981813099F47E0122E0E20EF11C36
:1006F0008A810E945010E7012196812F815050F38A
:10070000EFE9FFE03197F1F700C00000F7CF82304A
:1007100041F47E0182E0E80EF11C8A810E94BC0F48
:10072000EACF833041F47E01E2E0EE0EF11C8A81D3
:100730000E940A10E0CF843011F02196DDCF2A818B
:10074000229690E080E0AE014F5F5F4F2053330B65
:100750002A30310548F0019778F2EFE9FFE0319750
:10076000F1F700C00000F7CF089FB001099F700D9E
:100770001124C901860F971F2981EA01E4CF0E9445
:10078000FB02BACFDF91CF911F910F91FF90EF90B5
:10079000089560E00C94610308950C94CC0381E00B
:1007A00008950C94CF03CF93C82F0E94CD038C2FB4
:1007B000CF910C94D103CF93DF930E94790B0E94C9
:1007C000D504EC01811521E5920708F042C081159E
:1007D00030E5930708F09DC0883E910530F5803ED6
:1007E000910508F092C0883A910588F4853A910500
:1007F00008F084C08130910509F487C0009709F49E
:1008000084C0049708F081C0D0E0C0E07EC08F3B78
:100810009105D0F7C85AD0E0CC0FDD1FCB5EDE4F7C
:100820000990D881C02DD46470C08115904250F4D5
:10083000C11581E0D80708F068C0C03FD10520F39A
:10084000D06563C0C11590E4D907F0F2DF70D06ABB
:100850005CC0811525E5920700F5811534E5930705
:1008600008F08BC0811543E5940708F073C0C115EB
:1008700082E5D80708F469C0CE018370992721E08A
:1008800030E002C0220F331F8A95E2F7C695C69565
:1008900080E2C89FE001112454C0C11599E5D90731
:1008A000A8F4C11528E5D20708F06CC0C11536E5DB
:1008B000D30708F0A9CF8C2F0E946C05C82FD0E079
:1008C000DC2FCC27CC27DF71D0621FC0C1154AE5D1
:1008D000D40708F45CC0CE0190568115904208F010
:1008E00093CF8D2F8F710E946C0590E0982F8827F1
:1008F00088279F719C012C2BE901E6CFC55AD0E0D7
:10090000CD5BDE4FC881D0E0D064CE01DF91CF91C6
:100910000895E4E096958795EA95E1F783702C2F8A
:1009200026952695237040E2249F90011124382BB0
:100930008C2F8370C1E0D0E002C0CC0FDD1F8A9500
:10094000E2F7C22BD32BDC68E0CFDC2FCC27C16FC2
:10095000D06ADBCF8370992721E030E002C0220FFC
:10096000331F8A95E2F7C695C69590E2C99FE001CC
:100970001124C22BD32BDA68C8CFD82FCC27C46F51
:10098000D06AC3CFDC2FCC27C06FD06ABECF8C2FEC
:100990008F700E946C0534E0D695C7953A95E1F7C3
:1009A000CF709C2FEC01D069B0CF82389105B1F1A6
:1009B000B0F48133910509F475C048F4893291058A
:1009C00009F469C08A32910509F473C0089585332A
:1009D000910509F459C08933910501F10895833EC9
:1009E0009105A9F138F4803E9105F9F0823E910518
:1009F00049F10895863E9105A9F1873E9105C9F117
:100A0000843E910519F52091190221FF1FC08091A4
:100A1000180284FD14C087EE90E00895209118021A
:100A20002370A1F080EE90E008952091180220FD3F
:100A300047C03091190230FF09C024FF44C090E044
:100A400080E004C02091180222FDF7CF0895209184
:100A5000180222FD3BC03091190230FDE3CF24FF84
:100A6000F5CFEDCF2091180223FFF0CF24FDE7CF83
:100A7000D2CF2091180223FD2CC03091190231FFF2
:100A8000EECF84EE90E008952091180225FFDECF8E
:100A900089E290E008952091180225FFD7CF85E3E1
:100AA00090E008952091180226FFD0CF8AE290E0CE
:100AB00008952091180226FFC9CF81E390E00895A0
:100AC00089E390E0089583EE90E0089582EE90E04F
:100AD000089586EE90E008959091180292FF06C066
:100AE000282F28712830F9F4877F846093FF06C08F
:100AF000282F28712831F1F4877E84612091190212
:100B000020FF06C0382F38713830D9F4877F8160D4
:100B100021FF06C0282F28712831D1F4877E8161FA
:100B200094FD877E0895282F24712430F9F68B7F59
:100B30008860DCCF282F2471243101F78B7E8861F7
:100B4000DDCF382F3171313019F78E7F8860E0CFDB
:100B5000282F2171213121F78E7E8861E1CF0C94FD
:100B6000A5090E943B068FE39CE90197F1F700C0BD
:100B700000000E943B0680E00E94F10580FF04C057
:100B80000E94AF050C94711A08950C94B1050E944F
:100B9000A518811102C00E944A190E94B0188093C2
:100BA0000C020E94B81890931902809318020E94B8
:100BB000C5050E94B418682F70E090E080E00E94A4
:100BC000E4156091F7017091F8018091F90190911D
:100BD000FA010C941E1608950C94EB0508950C94DC
:100BE000EE05E82FF0E0E35EFD4F80810895089563
:100BF00080EA8A95F1F7089500C008950C94F805ED
:100C0000F894E82FE295EF70F0E031A1282F2F70D3
:100C100081E090E001C0880F2A95EAF7982F90951F
:100C2000932391A392A1892B82A37894089585EFB1
:100C30000E94000684EF0E94000680E90E940006E0
:100C400081E90E94000682E90E94000683E90E9471
:100C50000006AAE1B2E01C92EDE1F2E010821196EA
:100C60001C921197118212961C92128283E00E94AC
:100C7000B2060C948D02CF92DF92EF92FF920F9307
:100C80001F93CF93DF93C9E4D1E00AE112E0D12CA6
:100C9000EE24E394F12C8991F894E82FE295EF701B
:100CA000F0E021A18F70A70102C0440F551F8A9563
:100CB000E2F7CA01922F982B91A392A180958923E4
:100CC00082A378940E94FC05E6E4F1E030E020E0A5
:100CD000C12C4191A42FA295AF70B0E090968C9159
:100CE00090E04F7002C0959587954A95E2F780FD98
:100CF00035C08E2D022E01C0880F0A94EAF7C82A4B
:100D00002F5F3F4F2330310521F7FE01319780815E
:100D10000E9400060E94FE05F8018081C81601F1BC
:100D2000C08281E0D82A0F5F1F4FF1E0CC34DF078B
:100D300009F0B1CF2D2D43E06DE172E08AE192E040
:100D40000E94B3060E9491028D2DDF91CF911F91D9
:100D50000F91FF90EF90DF90CF90089580E0CFCF7C
:100D600080E0E0CF0895FF920F931F93CF93DF931E
:100D7000F82E092F162FD72FC42F222349F081E0F8
:100D8000809390010E94261A90938F0180938E0188
:100D9000809190018823A1F080918E0190918F0124
:100DA0000E943E1A069760F0EF2DF02FA12FBD2F65
:100DB000CE0FDF2FD11DEC17FD0741F410929001EB
:100DC000DF91CF911F910F91FF90089581918D93A5
:100DD000F2CF8091970180FF12C06091050185E0FC
:100DE000689FB00111247595679575956795603872
:100DF0007105A8F561157105A1F1862F089581FF90
:100E000009C06091050185E0689FB00111247595C6
:100E10006795EDCF6091050182FD0AC08091960132
:100E20008823D1F09091040160910501891728F081
:100E300085E0689FB0011124DACF869FB0011124AC
:100E400085E0869F9001879F300D1124692F70E007
:100E5000C9010E94E321CBCF65E070E0CECF8FE7E0
:100E6000089581E008958091970180FF0CC0609102
:100E7000010170E075956795759567956115710528
:100E800049F1862F089581FF06C06091010170E04D
:100E900075956795F3CF6091010182FD0BC090912C
:100EA00095019923A1F060910001809101019617AD
:100EB00038F0682F70E06038710500F38FE708950F
:100EC000899FC001112470E00E94E321F4CF61E00A
:100ED00070E0D7CF81E00895803F31F40E94E906A9
:100EE000819580939B010895813F19F40E94E90642
:100EF000F8CF823F31F40E94E906819580939A01F0
:100F00000895833F19F40E94E906F8CF893F29F438
:100F10000E94330780939C0108958A3F21F40E9428
:100F200033078195F7CF8B3F31F40E9433078195CA
:100F300080939D0108958C3F19F40E943307F8CFE8
:100F40009CE0980F953070F4845F990B21E030E0BD
:100F500001C0220F8A95EAF780919901822B809334
:100F6000990108958D3F31F48091970181608093BC
:100F7000970108958E3F21F4809197018260F7CF09
:100F80008F3FB9F7809197018460F1CF40919A012A
:100F9000803F59F480919B0187FF0DC010929B0107
:100FA00041110BC01092960108C0813F81F48091DD
:100FB0009B0118169CF3442381F080919C01909131
:100FC0009D01892B09F05AC0109295010895823F26
:100FD00049F447FFF0CF10929A0180919B01811153
:100FE000ECCFE0CF833F19F41416ACF3E4CF90912B
:100FF0009C01893F29F41916F4F610929C01DBCF6D
:101000008A3F19F497FFD7CFF8CF90919D018B3F7E
:1010100029F497FFD0CF10929D01CDCF8C3F19F4CA
:101020001916CCF3C8CF9CE0980F953090F4845FEC
:10103000990B21E030E0B90102C0660F771F8A9555
:10104000E2F7CB01809590919901892380939901D2
:10105000B2CF8D3F31F4809197018E7F80939701BD
:10106000AACF8E3F21F4809197018D7FF7CF8F3FDC
:1010700009F0A1CF809197018B7FF0CF08950E9456
:10108000261A9C0190919A0180919B01982B21F046
:10109000309394012093930190919C0180919D0144
:1010A000982B21F0309392012093910188E991E0EF
:1010B0000C946B0EEF92FF920F931F93CF93DF93DD
:1010C00000D000D000D0CDB7DEB786E0E8E9F1E08F
:1010D000DE01119601900D928A95E1F7E0909A0158
:1010E000F0909B0100919C0110919D0110929A013A
:1010F00010929B0110929C0110929D018E2D8F29C0
:1011000091F080919301909194010E943E1AAC015C
:1011100090919601992309F43FC0809106018417AC
:10112000150608F447C0802F812B91F08091910122
:10113000909192010E943E1AAC01909195019923E1
:1011400009F477C0809102018417150608F47FC066
:1011500080919A0190919B01892B90919C01892B00
:1011600090919D01892B11F00E943F0886E0FE01BD
:101170003196A8E9B1E001900D928A95E1F72696A3
:101180000FB6F894DEBF0FBECDBFDF91CF911F9198
:101190000F91FF90EF900895209107018AE0289F1A
:1011A000900111242417350708F0BDCF9F5F90935D
:1011B000960102C09F3FD1F7EE2059F00E94E90648
:1011C0009FEF1E140CF491E0899F802D11248093D1
:1011D0009A01FF2059F00E94E9069FEF1F140CF4BA
:1011E00091E0899F802D112480939B0130919A0179
:1011F000332309F498CF20919B01222309F493CF44
:1012000045EB3403C0011124992359F090939A01BE
:1012100045EB240390011124332339F030939B01D3
:1012200082CF81E080939A01F3CF81E080939B018C
:101230007ACF209103018AE0289F9001112424177E
:10124000350708F085CF9F5F9093950102C09F3FBF
:10125000D1F7002359F00E9433079FEF10160CF4CA
:1012600091E0899F802D112480939C01112359F0D6
:101270000E9433079FEF11160CF491E0899F802D97
:10128000112480939D0130919C01332309F460CF98
:1012900020919D01222309F45BCF45EB3403C0016B
:1012A0001124992359F090939C0145EB240390015C
:1012B0001124332339F030939D014ACF81E080938C
:1012C0009C01F3CF81E080939D0142CF86E0E8E965
:1012D000F1E0DF011D928A95E9F7109296011092D4
:1012E000950110929701089583E290E00E941822E0
:1012F000813289F484E290E00E941822873059F408
:1013000085E290E00E94182291E0893209F090E095
:10131000892F8170089580E0FCCFCF93C82F6FEFA5
:10132000811161E283E290E00E9426226FEFC111F9
:1013300067E084E290E00E9426226FEFC11169E22B
:1013400085E290E0CF910C94262280E00E948D09E6
:101350000C949F18089586E290E00E941822682F4E
:1013600070E090E080E0089586E290E00C94262200
:101370000E94AA090E94740981110CC060E070E00B
:10138000CB010E94B4090E94F30A0E94DD0B81E0A8
:101390000C948D090895CF93FB01C281CC2309F1F0
:1013A0009C0122513F452031310520F582510E9498
:1013B000ED0BC0E08C2FCF91089581E00E9446167E
:1013C00043E062E081E00E947B02F3CF81E00E9473
:1013D000671643E062E081E00E947B02EBCF82E08F
:1013E000F6CF8031FFE59F0789F381319F45B9F33F
:1013F000C1E0E0CF8031EFE59E07F9F281319F45F2
:10140000C9F682E0DBCF2FEFFC01208308951F9304
:10141000CF93DF93EC01162FE881E150E33108F020
:1014200059C0F0E0E45AFD4D0C94F721198289E08F
:101430008A83612FCE01DF91CF911F910C94121BF3
:1014400089818230D1F0833059F08130C9F40E9413
:10145000321A0E94FD216A837B838C839D83E9CFAE
:1014600080E00E94F1058A8381E00E94F1058B8370
:1014700082E00E94F1058C83DCCF0E94AB09E9CFAA
:10148000612FCE010E94030AD4CF89818230C1F737
:101490006A817B818C819D810E94FD210E94B4091B
:1014A000C8CF4B816A8189810E94C50A9827892704
:1014B00098279D838C83BDCF2C813D8132272327A4
:1014C00032274B816A8189810E94DE0AB2CF0E9455
:1014D000F30AAFCF8FEF8883ACCF0E94860B89834E
:1014E000A8CF0E94880B9827892798279A838983F9
:1014F000A0CF6B8170E089819A81AE014C5F5F4F14
:101500009827892798270E948B0B93CF6B8170E0D7
:1015100089819A81AE014C5F5F4F98278927982770
:101520000E94B20B86CF0E94DD0B83CF0E94B30ACC
:10153000D6CF6B8170E089819A81AE014C5F5F4F9D
:101540009827892798270E942B0B73CF6B8170E017
:1015500089819A81AE014C5F5F4F98278927982730
:101560000E94500B66CF84E0089550E0440F551F51
:1015700096E0699F400D511D112492E1899F400D15
:10158000511D1124CA01879608950F931F93CF937D
:10159000DF930E94B50A8C010E941822C82FD0E068
:1015A000DC2FCC27C80101960E9418229E01282B0F
:1015B000C901DF91CF911F910F9108950F931F9350
:1015C000CF93DF93122F032F0E94B50AEC01602FF7
:1015D0000E942622612FCE010196DF91CF911F91AB
:1015E0000F910C942622AF92BF92CF92DF92EF928E
:1015F000FF921F93CF93DF938CEAC82E80E0D82E02
:10160000D0E07601C0E014C0F50125913491412F5E
:101610006C2F8D2F0E94DE0A82E0A80EB11C1F5F86
:10162000133091F786E0E80EF11CCF5FC33019F05C
:10163000570110E0E9CFDF5F82E1C80ED11CD43042
:1016400001F7DF91CF911F91FF90EF90DF90CF9046
:10165000BF90AF900895EF92FF920F931F93CF9397
:10166000DF93EC018A017C01E60EF71ECE0187961E
:10167000CE15DF0539F4DF91CF911F910F91FF90C7
:10168000EF900895C834D10540F40E941822F80163
:1016900080830F5F1F4F2196E9CFF8011082F9CFA9
:1016A000CF92DF92EF92FF920F931F93CF93DF932E
:1016B0007C016A018C01060F171FEC01CE01879691
:1016C000C017D10749F4DF91CF911F910F91FF907F
:1016D000EF90DF90CF900895C834D10540F4FE011B
:1016E000EE19FF09EC0DFD1D60810E942622219656
:1016F000E5CF462F843038F4733028F4633018F483
:10170000672F0C94C50A90E080E0089580E1089569
:1017100081E993E00895EF92FF920F931F93CF9387
:10172000DF93EC018A017C01E60EF71ECE018159A0
:101730009F4FCE15DF0539F4DF91CF911F910F91A7
:10174000FF90EF900895C13923E0D20740F40E9442
:101750001822F80180830F5F1F4F2196E7CFF80111
:101760001082F9CFCF92DF92EF92FF920F931F93E7
:10177000CF93DF937C016A018C01060F171FEC01E8
:10178000CE0181599F4FC017D10749F4DF91CF9106
:101790001F910F91FF90EF90DF90CF900895C13986
:1017A00023E0D20740F4FE01EE19FF09EC0DFD1D08
:1017B00060810E9426222196E3CFCF93DF93CFE66C
:1017C000D0E060E0CE010E9426222196C11584E07F
:1017D000D807B9F7DF91CF910895DF92EF92FF928A
:1017E0000F931F93CF93DF9300D000D0CDB7DEB718
:1017F000F82E8FE08F1540F08FEF93E00E941822B3
:101800000FE610E08823C1F00F900F900F900F901B
:10181000DF91CF911F910F91FF90EF90DF9008958E
:10182000011584E0180781F3C8010E941822811174
:1018300001C0FA940F5F1F4FF110F2CF19821A8284
:101840001B821C82DD24D39478018FEFE81AF80AFA
:10185000C8010E94182289831A828823A9F29FEF67
:10186000980F933078F48A83D9820E5F1F4FC70197
:101870000E9418228B83882339F2CE0101960E94A0
:10188000C903E2CF8701F9CF0F931F93CF93DF9363
:10189000C42FD22FFC0182818823C9F04093A0017C
:1018A0000E94261A90939F0180939E0180E28C0FE4
:1018B000883008F050C0C77081E001C0880FCA9519
:1018C000EAF7DF91CF911F910F910C94581010916E
:1018D000A001141335C080919E0190919F010E9438
:1018E0003E1A883C910560F5C0E2CD0F1D17B9F096
:1018F00080E2810F883040F4177081E001C0880FCA
:101900001A95EAF70E945F10C83048F481E09D2FD5
:10191000977001C0880F9A95EAF70E945810802F9F
:101920000E945010C830B8F4D77081E001C0880F11
:10193000DA95EAF7DF91CF911F910F910C945F1028
:1019400080E28C0F883038F4C77081E001C0880FC6
:10195000CA95EAF7EFCFDF91CF911F910F910895CC
:101960000F939C01CB01233F4CE5340759F1A8F4B8
:10197000283DFCE53F0701F1293D4CE53407D1F155
:10198000273D3C4591F406E221EE41EE67ED7CE512
:101990000E94440C80E00F910895253FFCE53F072D
:1019A000E9F0B0F0263F3C45F9F0FC018281882344
:1019B00039F11092A001EFCF07E225EE45EE68ED78
:1019C0007CE5E6CF06E221EE40EE63EF7CE5E0CF7A
:1019D00007E225EE44EE64EF7CE5DACF06E221EE85
:1019E00042EE65EF7CE5D4CF07E225EE46EE66EFEA
:1019F0007CE5CECF08E221E045EE69ED7CE5C8CF7D
:101A000081E0C9CFCF93DF93EC01FB018281882372
:101A100009F419C1C230FCE5DF07C0F1C6319CE50D
:101A2000D90730F09E012A5F3C452930310570F519
:101A30000E94B8189093190280931802C031ECE507
:101A4000DE0709F4CFC008F05BC0C8308CE5D807CA
:101A500009F4B6C088F5C430ECE5DE0709F4A8C087
:101A6000C0F4C2308CE5D80709F49CC080911802FC
:101A70008260C330DC4509F498C0809118029091CF
:101A800019020E94C6180E94C41280E0DF91CF9113
:101A90000895809118028061C630ECE5DE0709F4F4
:101AA00084C0809118028860C730DC4508F47DC08E
:101AB00080911802806279C0CC308CE5D80709F497
:101AC00089C070F4809118028C60CA30ECE5DE07A2
:101AD00009F46BC008F478C0809118028E7F65C04D
:101AE000CE308CE5D80709F479C0809118028B7F3D
:101AF000CF30DC4508F459C0809118028F7E55C064
:101B0000CB3FECE5DE0709F457C030F5C3318CE577
:101B1000D80709F46FC078F4C131ECE5DE0709F4A9
:101B200065C0C231DC4509F0A8CF0E94C412809183
:101B300018028F773AC0C5318CE5D80709F462C026
:101B400008F476C0809119028160CA3FDC4509F033
:101B500094CF8093190291CFCF3FFCE5DF0709F4C2
:101B60004DC088F4809119028D7FCD3F9CE5D90747
:101B700081F3809119028E7FCE3FDC4550F3809136
:101B800019028360E6CFC130FDE5DF0709F459C0D3
:101B900008F444C080E0C230DD4509F06ECF0E94F9
:101BA0004C196BCF8091180281608093180265CF29
:101BB000809118028460F9CF809119028260C9CFA8
:101BC000809118028064F1CF0E94C41280911802A3
:101BD0008068EBCF809118028D7FE7CF809118024B
:101BE000877FE3CF809118028F7DDFCF809118022D
:101BF0008F7BDBCF80911802837FD7CF8091190232
:101C00008C7FA7CF8091180282FB992790F921E061
:101C1000922790FB82F990FB83F9C7CF809119023C
:101C2000982F909591708E7F892B90FB81F991CFA1
:101C30000E94C41290911802892F97FB87F980584F
:101C4000B4CF81E0ACCF81E021CFCF93DF93EB0124
:101C500086319C4511F50E94ED179A81992399F0E0
:101C60008A7A91E009F490E09093A101811109C072
:101C700089E20E94A7170E94301880E0DF91CF917F
:101C8000089585E3F6CF8091A101811104C089E216
:101C90000E94AE17F0CF85E3FBCF81E0EFCF9093AA
:101CA000A7018093A6010895E091A601F091A701F4
:101CB000309721F00190F081E02D099480E00895A3
:101CC000E091A601F091A701309721F00280F38105
:101CD000E02D09940895E091A601F091A7013097B5
:101CE00039F022E0DC012C930480F581E02D099489
:101CF00008952091A4013091A5012817390771F0AA
:101D00009093A5018093A401E091A601F091A70111
:101D1000309721F00680F781E02D099408952091F5
:101D2000A2013091A3012817390771F09093A30104
:101D30008093A201E091A601F091A701309721F0D4
:101D40000084F185E02D099408950E94321A609371
:101D5000B0017093B1018093B2019093B30160938D
:101D6000AC017093AD018093AE019093AF010895E3
:101D700085B7806885BF85B7806885BF0895089559
:101D800008950C94BF0E08950C94C30E0E94B80ED3
:101D90008DE998E10E94821A0E94C00E0C94C10E37
:101DA00081E008950C94D00E089508950E94D40EF9
:101DB0000C94D50E0E941D1A0E9417060E94B809A5
:101DC0000C94C40EBF92CF92DF92EF92FF920F93CA
:101DD0001F93CF93DF93CDB7DEB72A970FB6F89452
:101DE000DEBF0FBECDBF0E943B0681110E94A50E33
:101DF00039EAC32E31E0D32E10E000E0B02E802F60
:101E00000E94F105E82EF601F1906F01F81609F431
:101E100055C080910C0281FD0E94F7058F2D8E2503
:101E2000F82FF170FF2E80FD42C081FD42C082FF7D
:101E300045C092E0D92E24E0F22E0E94D20E8823D3
:101E400099F0DE82BF82EF2081E009F480E088878C
:101E50000E94261A8160782F9A8789874E815F8138
:101E600068858A850E94850FF801E755FE4F8081BD
:101E7000F826F0820E945A080E94540E9091A80100
:101E8000891799F10E94540E8093A8012A960FB6E3
:101E9000F894DEBF0FBECDBFDF91CF911F910F91A0
:101EA000FF90EF90DF90CF90BF900C94D303D12C94
:101EB000C4CFDD24D39482E0F82EBFCF0F5F1F4F35
:101EC0000330110509F09ACF8FEF89838A831B8233
:101ED0000E94261A8160782F9D838C8349815A81C4
:101EE0006B818D810E94850FC5CF2A960FB6F8941D
:101EF000DEBF0FBECDBFDF91CF911F910F91FF903D
:101F0000EF90DF90CF90BF900895DF92EF92FF9215
:101F10000F931F93CF93DF93CDB7DEB72B970FB6F9
:101F2000F894DEBF0FBECDBF7A878B87F42E052FC6
:101F3000162FE72ED82E61110E940D181E821D82C9
:101F40007E2DEC82DD824F2D502F612F8D2D9E81B5
:101F50002B960FB6F894DEBF0FBECDBFDF91CF91A9
:101F60001F910F91FF90EF90DF900C943A15FC01B8
:101F7000808191810C947917CF93C82F882309F41D
:101F800047C08CEF8C0F813AA0F46C2F8091080130
:101F9000909109010E946319882329F08C2F0E94D7
:101FA000AE170E9430188C2F0E94A717CF910C9467
:101FB000301880E28C0F883048F4C77081E001C08F
:101FC000880FCA95EAF70E94F017F0CFEBE5EC0F07
:101FD000E33040F4F0E0E658FE4F808190E0CF918E
:101FE0000C94790EE8E5EC0FE73150F4F0E0EE0FD9
:101FF000FF1FE45BFE4F80819181CF910C948F0E87
:10200000C03F30F08C2F0E946C07CF910C943F089A
:10201000CF910895882361F19CEF980F913A20F4B5
:102020000E94AE170C94301890E2980F983050F43C
:10203000877091E001C0990F8A95EAF7892F0E9475
:10204000F617F0CF9BE5980F933020F490E080E0F6
:102050000C94790E98E5980F973120F490E080E089
:102060000C948F0E803F20F00E94C6070C943F080E
:1020700008951F93CF93DF93182FEB010E94BC0F9D
:10208000209731F4812FDF91CF911F910C940A108A
:102090008FE99FE00197F1F700C000002197F0CF92
:1020A00070E060E0893311F460E570E00C94391061
:1020B000882321F00E94F0170C943018089588238B
:1020C00021F00E94F6170C9430180895BF92CF9219
:1020D000DF92EF92FF920F931F93CF93DF936C01E8
:1020E000D62FC72FFC011281058102950F700E9427
:1020F000C517E82E8823A1F0E12E112389F08C2F3B
:10210000807F803429F080E28D0FE12C883040F010
:1021100082E00E9481180E94C51791E0E82EE9260E
:10212000BC2EB2949FE0B922FBE0FB1598F1EB2D99
:10213000F0E0E159FD4D0C94F7210C2F0F70C07F9A
:1021400011F00295007F1123A9F0002359F080E2DD
:102150008D0F883010F0D11109C0802F0E94F01728
:102160000E9430188D2F0E94BC0F14C0802F0E9437
:102170000018F6CF8D2F0E940A10002359F080E23C
:102180008D0F883010F0D1112CC0802F0E94F617CF
:102190000E9430182B2D2850330B2430310520F4A9
:1021A0000E94540E0E94D303EE2009F48EC10E94B7
:1021B000C11780FD8AC1F60112820E94BB170E94DE
:1021C0004616C6010E9486120E94BB17DF91CF916E
:1021D0001F910F91FF90EF90DF90CF90BF900C94E4
:1021E0006716802F0E940618D3CF2C2F2F70F22E47
:1021F000C07FC03219F0F29480EFF822DD2369F03D
:10220000D13049F1112391F1002351F1F60185817B
:1022100080FFA8CF8F70858323C0112381F0011127
:1022200006C00E9413188F290E945810B3CF0130A6
:10223000C1F70E9413188F290E941918ABCF011102
:1022400006C00E9426188F2D0E945F10A3CF013078
:1022500009F4A0CFF6CF112329F0063008F09ACF69
:102260008F2DE2CF053008F095CFEDCF002359F345
:10227000D93349F4FFEF27EE33E0F15020403040EE
:10228000E1F700C000008D2F0E940A1083CF8C2F31
:1022900086958695837069F0813009F07BCF8D2F0C
:1022A0009C2F9370111102C090E080E00E948F0E6D
:1022B00071CF8D2F9C2F9370111102C090E080E0A0
:1022C0000E94790E67CF8D2F112329F00E946C0791
:1022D0000E943F085FCF0E94C607FACF8C2F837001
:1022E00009F041C0111156CF4D2F429546954770C8
:1022F000440F440F0D2F0F7010E030E020E0042E4B
:1023000004C0000F111F221F331F0A94D2F760E090
:1023100070E0CB01D4FF0FC06FE070E080E090E090
:1023200004C0660F771F881F991F4A95D2F76095E2
:10233000709580959095C695C695C370602B712B4E
:10234000822B932BC23049F058F4C13019F00E940F
:10235000F81520CF0E94E6151DCF0E940A161ACF4D
:102360000E94E41517CF8695112311F08C2F8170F0
:10237000882309F40FCF4D2F429546954770440F9F
:10238000440F0D2F0F7010E030E020E0042E04C049
:10239000000F111F221F331F0A94D2F760E070E074
:1023A000CB01D4FF0FC06FE070E080E090E004C08C
:1023B000660F771F881F991F4A95D2F76095709511
:1023C00080959095C695C695C370602B712B822B16
:1023D000932BC23049F058F4C13019F00E94BD1659
:1023E000D9CE0E94AB16D6CE0E94CF16D3CE0E9475
:1023F0002016D0CECF70112329F08C2F0E944616C4
:102400008D2F12CF8D2F0E945F108C2F0E94671688
:10241000C1CED23F89F160F4D03FC9F0D13F29F15C
:10242000112309F442C001119DCE8C2F8F7121C060
:10243000D33F39F1D43FA1F7112369F1CF718C2F2C
:102440000E94461663E08C2F0E946618A3CE1123CB
:1024500041F0053008F09ECE8C2F8F710E948A16B5
:1024600099CE063008F096CEF7CF8C2F8F711123BE
:1024700069F20E9446168ECE8C2F8F711123C9F3FC
:10248000C5CF112329F08C2F8F710E94311682CE77
:102490000E942C167FCE81E00E948118023008F441
:1024A00079CE82E00E94811875CE002359F0D9338D
:1024B00009F0E9CE8FEF97EEE3E081509040E040E5
:1024C000E1F7DFCE8C2F8F71A1CFDF91CF911F91DC
:1024D0000F91FF90EF90DF90CF90BF9008950F93F2
:1024E0001F93CF93DF93EC01688179818A810E94E9
:1024F00083178C010E94E1160E94E315B801CE01FA
:10250000DF91CF911F910F910C946610CF93DF93C1
:10251000EC018B819C81892B29F088819981892309
:102520008F3F59F4DF91CF910895CE010E946F1231
:10253000CE01DF91CF910C941C02CE010E94A30228
:102540008111F3CF0E94C517882361F38A81882304
:1025500049F382E0DF91CF910C94811890E080E004
:102560000E94790E90E080E00E948F0E0E940D186C
:102570000E9410180E9430180E9466090C943F08AF
:102580000E94B5170C94AE120E94FD170C94C01255
:10259000E92FE295EF70E250EE3070F4F0E0E5588C
:1025A000FD4D0C94F721803F19F020F4883E20F473
:1025B00081E00895843FE1F380E00895883EC0F310
:1025C000813FD1F7F5CF93FB882780F908950E94CA
:1025D00079170C94C812CF93DF9300D000D00F92DC
:1025E000CDB7DEB70F900F900F900F900F90DF9147
:1025F000CF910895CF93DF9300D000D000D0CDB716
:10260000DEB726960FB6F894DEBF0FBECDBFDF91C2
:10261000CF9108951F93CF93DF93C091B50116E03A
:102620008091B6018C1304C0DF91CF911F91089562
:10263000D0E01C9FF0011D9FF00D1124E954FE4FC6
:102640004081518162817381848195810E94FA1257
:102650002196C770E5CF4091E7015091E801609164
:10266000E9017091EA018091EB019091EC010C94E9
:10267000FA121F93CF93DF938091EC01807FA9F42E
:102680008091E901882389F08091B501C091B6015C
:102690006091E7017091E801A091EA01B091EB012E
:1026A000D62FD72316E0C81304C0DF91CF911F9116
:1026B000089590E0109711F0DF3F19F401968770AC
:1026C000F2CF189F9001199F300D1124F901E954A0
:1026D000FE4F41814713F2CF40814613EFCF428135
:1026E0004111ECCF438154814A1B5B0B483C51059F
:1026F00028F78091EC018F7080618093EC01F901E3
:10270000E454FE4F80818F708061808387EE91E07A
:102710000E948612DF91CF911F910C940A13AF9201
:10272000BF92CF92DF92EF92FF920F931F93CF93BE
:10273000DF93CDB7DEB761970FB6F894DEBF0FBE5B
:10274000CDBF8C0185E0F801DE011D9601900D9250
:102750008A95E1F7F80140815181E28087EEC82E29
:1027600081E0D82E6091EA017091EB01611571054D
:1027700009F461C19091E7012091E801892F82233A
:102780008F3F09F458C1A380B480F090E901F501AE
:10279000E61BF70BFF2009F4FCC08091EC01382FF9
:1027A000307FE83CF10508F0B2C0311179C0FE2C51
:1027B000251323C0941321C0E1101FC08F708061C6
:1027C0008093EC010E942B13C6010E948612809117
:1027D000EC01F80185838F2D61960FB6F894DEBF6A
:1027E0000FBECDBFDF91CF911F910F91FF90EF9062
:1027F000DF90CF90BF90AF900895AB2829F0842F41
:1028000085238F3F09F033C180E0F82FF170DF2E70
:1028100080FF3CC08091B5012091B60136E0821363
:1028200015C04D875E878D859E850E947917292F5B
:1028300022952F702230F0F0243018F59F70F1F0BF
:10284000F8019581907FD1F4D12C1EC090E0389F83
:10285000F001399FF00D1124E954FE4F6181651399
:1028600006C06081641303C062816E110FC00196BF
:102870008770D5CF9F7011F0882331F3805E883048
:1028800018F3C8010E948612FD2CA5CFEE2009F492
:10289000A2CF8091EC0181608093EC01F12C9BCF61
:1028A000251306C0941304C0F801EE2009F48DC06E
:1028B0004D875E878D859E850E94E712882319F1DA
:1028C000EE2009F18091EC01803270F02091E70157
:1028D0003091E80138872F831986BB86AA868C87BA
:1028E000CE0107960E94861286E0F801A7EEB1E0BD
:1028F00001900D928A95E1F70E9439130E942B13E3
:10290000FF24F39468CFC8010E948612F9CF3111D9
:1029100013C07A2DB98AA88A6E2D89890E94EB127C
:1029200087EE91E00E94861286E0F60111928A9568
:10293000E9F70E942B13B2CF25130FC094130DC0DB
:10294000E1100BC0F8018583C8010E94861286E061
:10295000F60111928A95E9F73ECF4D875E878D8506
:102960009E850E94E712882371F2EE2061F2809129
:10297000EC01803208F4B8CF2091E7013091E801F2
:102980003A8329831B82BD82AC828E83CE0101965D
:10299000A9CFE83CF10508F041C0FE2CEE2009F477
:1029A000B2CF25132AC0941328C08091EC0180FD7A
:1029B0001BC0982F907FC1F0F8018583903F31F0C4
:1029C000982F907F905F8F70892B8583C8010E941C
:1029D000861286E0F801A7EEB1E001900D928A958B
:1029E000E1F70E942B13F7CE86E0F801A7EEB1E0E5
:1029F00001900D928A95E1F7EECE4D875E878D8529
:102A00009E850E94E71281116FCF8091EC01816059
:102A10008093EC01C8010E948612DDCE7A2DB98A1E
:102A2000A88A6E2D89890E94EB1286E0F601119228
:102A30008A95E9F7D6CFEE2009F465CF4D875E87FA
:102A40008D859E850E94E712F82E882309F45BCFBE
:102A500086E0F801A7EEB1E001900D928A95E1F7CA
:102A600087EE91E00E94B70F0E943913BACF81E040
:102A70008E25CBCE1F93CF93DF93CDB7DEB72C97A8
:102A80000FB6F894DEBF0FBECDBF4F83588769875E
:102A90007A878B879C87CE0107960E948F138823A5
:102AA00069F08A859B85892B39F04F815885842F61
:102AB00085238F3F09F071C016E05FC086E0FE01FC
:102AC0003796DE01119601900D928A95E1F78A857D
:102AD0009B85892B89F38F81988589238F3F61F3AB
:102AE0002091B60130E0C901019687709927409185
:102AF000B5014817190671F40E94C4121092B6016C
:102B00001092B50186E0E7EEF1E0DF011D928A95B3
:102B1000E9F7D2CF96E0929FD001939FB00D112498
:102B2000A954BE4FFE01319601900D929A95E1F79E
:102B30008093B6010E940A13BFCF819FC001112468
:102B400089549E4F0E948F138823E9F0E091B501CC
:102B50001E9FF0011124E954FE4F40815181628192
:102B60007381848195810E94FA128091B50190E071
:102B70000196877099278093B5018091B501909156
:102B8000B6018913DACF2C960FB6F894DEBF0FBECC
:102B9000CDBFDF91CF911F91089569857A858B858F
:102BA0009C850E94FA1288CF08950C94D4150E9437
:102BB000D5156093FB017093FC018093FD01909308
:102BC000FE010C94AE1208950C94D7150F931F9329
:102BD0000091FB011091FC012091FD013091FE015B
:102BE000602B712B822B932B1F910F910C94D71577
:102BF0000F931F930091FB011091FC012091FD01A7
:102C00003091FE0160237123822393231F910F9142
:102C10000C94D7150F931F930091FB011091FC01A9
:102C20002091FD013091FE016027712782279327B3
:102C30001F910F910C94D7150C94D4150C941C165D
:102C40000E941E166093F7017093F8018093F901BA
:102C50009093FA010C94AE1260E070E0CB010C94FA
:102C600020160F931F9341E050E060E070E08A016E
:102C70009B0104C0000F111F221F331F8A95D2F73A
:102C8000C901B8011F910F910C9420160F931F9347
:102C900041E050E060E070E004C0440F551F661F43
:102CA000771F8A95D2F78091F7019091F801A09152
:102CB000F901B091FA018A019B01082B192B2A2BEB
:102CC0003B2BC901B8011F910F910C9420160F9353
:102CD0001F9341E050E060E070E004C0440F551FD6
:102CE000661F771F8A95D2F7CB01BA016095709560
:102CF000809590950091F7011091F8012091F901CC
:102D00003091FA0160237123822393231F910F9145
:102D10000C9420160F931F9341E050E060E070E0A8
:102D200004C0440F551F661F771F8A95D2F7809104
:102D3000F7019091F801A091F901B091FA018A018F
:102D40009B01082719272A273B27C901B8011F9192
:102D50000F910C9420160F931F930091F70110917F
:102D6000F8012091F9013091FA01602B712B822B2F
:102D7000932B1F910F910C9420160F931F9300918A
:102D8000F7011091F8012091F9013091FA016023C7
:102D90007123822393231F910F910C9420160F937C
:102DA0001F930091F7011091F8012091F9013091E2
:102DB000FA0160277127822793271F910F910C94A6
:102DC00020160895E92FEE0F9E0F890F982F977008
:102DD00041E001C0440F9A95EAF78695869586955D
:102DE00095E0899FF0011124E351FE4F30E020E08F
:102DF00070E05191DF011197CB01022E02C0969530
:102E000087950A94E2F78170819585278423852729
:102E10008C932F5F3F4F2530310559F70895E92FE7
:102E2000EE0F9E0F890F982F977086958695869541
:102E300025E0829FF0011124E351FE4F50E040E075
:102E400080E0219130E0092E02C0369527950A9442
:102E5000E2F721703327042E01C0220F0A94EAF70B
:102E6000822B4F5F5F4F4530510559F70895BF9250
:102E7000CF92DF92EF92FF920F931F93CF93DF9346
:102E80008C01C090F701D090F801E090F901F0902A
:102E9000FA018091FB019091FC01A091FD01B0919C
:102EA000FE01C82AD92AEA2AFB2ACFE1D0E0BC2EAB
:102EB000D701C6010C2E04C0B695A79597958795A6
:102EC0000A94D2F780FD0EC0219788F7B12C8B2D84
:102ED000DF91CF911F910F91FF90EF90DF90CF90F6
:102EE000BF900895B8018C2F0E94DB03019761F316
:102EF000EECFCF93DF93EC010E943717BE01DF9135
:102F0000CF910C94DB031F93CF93DF93EB01909150
:102F1000B401992331F0CB01DF91CF911F910C9433
:102F20007917882379F0CB010E943717182F682F63
:102F3000CE010E94E216BE01812FDF91CF911F9139
:102F40000C94DB03CB010E940F17182FF4CF682FCE
:102F500080910801909109010C949919682F809132
:102F60000801909109010C949B198091080190919E
:102F700009010C949D198091FF0185958595859592
:102F800008958091FF01877008959091FF019770D7
:102F900081E009F480E008959091190292FB2227C4
:102FA00020F9281751F080FB92F990931902809133
:102FB0001802909119020C94C61808958091190274
:102FC00082FB882780F991E089270C94CC1781E057
:102FD0000C94CC1780E00C94CC1780910B020895D0
:102FE00090910B02892B80930B020895809590910C
:102FF0000B02982390930B02089510920B020895F0
:1030000090910A02892B80930A02089580959091ED
:103010000A02982390930A02089510920A020895D2
:1030200010920902089580910002089508950C9469
:1030300016189091190292FD08C0909100029817FD
:1030400021F0809300020C941718089580910002DB
:10305000882329F01092000280E00C94171808953C
:10306000E0910801F091090180910B028083E091C9
:103070000801F0910901808190910A02892B8083D7
:10308000E0910801F0910901808190910902892B5A
:10309000808390910002992381F0E0910801F091E2
:1030A00009018081892B8083809108019091090119
:1030B0000E94511981110E94261880910801909157
:1030C00009010C94600E08950C94631890911902F4
:1030D00092FD10C098E0899F90011124622B6093AB
:1030E000FF010E9446168091FF0185958595859583
:1030F0000C9464180C9446161092FF0180E00C9416
:1031000064189091FF01809589238093FF01282FF7
:10311000277039F4282F082E000C330B9217130652
:1031200021F49091190292FF07C0859585958595A8
:103130000E9467160C947C18089580E008956FEF44
:103140007FEF90E080E00C94442290E080E00E94C9
:10315000202221E08A3E9E4F09F020E0822F089530
:1031600082E090E00C94182283E090E00C94182206
:10317000CF9384E090E00E941822C82F82E290E072
:103180000E941822982F8C2FCF910895CF93C92F8A
:10319000682F84E090E00E9426226C2F82E290E06B
:1031A000CF910C942622AB01BC018FE090E00C94EF
:1031B0003822AB01BC0183E190E00C94382260E03E
:1031C00070E0CB010C94D91860E070E0CB010E9454
:1031D000D3180C94DF186AEE7EEF90E080E00E9436
:1031E000442260E082E090E00E94262260E083E0DA
:1031F00090E00E9426221092FB011092FC01109296
:10320000FD011092FE0160E084E090E00E94262221
:1032100060E082E290E00E94262260E085E090E09B
:103220000E94262260E086E090E00E9426226FEF56
:1032300087E090E00E94262240E050E0BA0188E05A
:1032400090E00E94382260E08DE090E00E9426220B
:1032500040E050E0BA0188E190E00E94382260E04E
:1032600087E190E00E94262240E050E0BA018CE124
:1032700090E00E94382270E060E080E290E00E94DE
:10328000442240E050E0BA0188E190E00E943822F8
:103290000C94E4180C94EB18682F8EE090E00C94DA
:1032A00026229C012E5F3F4FAC01485F5F4F80E0BC
:1032B0002417350709F40895F90191919F01992385
:1032C000B9F38F5FF5CF662349F0FC01329608967B
:1032D0002191261729F0E817F907D1F780E0089522
:1032E00081E008959C01FC0132969FEF80E04191BE
:1032F000461751F09F3F19F4411101C0982F8F5F7D
:103300008630A9F79F3F09F40895290F311D97FDD5
:103310003A95F90162830895FC013296089621914D
:10332000261303C0DF0111971C92E817F907B9F7BC
:1033300008950C9472190C948C19029626E0FC01E5
:1033400011922A95E9F70895089508950C94A51906
:1033500080912802843049F10E94A61980E00E94E1
:10336000D30310920D0288E190E020E40FB6F894A8
:10337000A895809360000FBE2093600083B7817F83
:10338000846083BF83B7816083BF7894889583B757
:103390008E7F83BF0FB6F894A895809160008861F6
:1033A00080936000109260000FBE08950895CF933F
:1033B0000E94A4190E943B060E94D619C0E08C2FDF
:1033C0000E94F105811105C0CF5FC330C1F7CF91D5
:1033D000089581E0FCCF08950C94EB190E94C4126B
:1033E0000E94540E0E94D3030C94EC191F921FB636
:1033F0001F9211248F939F93AF93BF9380910D02DF
:10340000811113C08091200290912102A09122028B
:10341000B09123024196A11DB11D8093200290938B
:103420002102A0932202B0932302BF91AF919F91FA
:103430008F911F901FBE1F90189582E084BD93E06E
:1034400095BD9AEF97BD80936E0008952FB7F894BD
:103450008091200290912102A0912202B09123023A
:103460002FBF08952FB7F894609120027091210228
:1034700080912202909123022FBF08959C014FB7A3
:10348000F8948091200290912102A0912202B091A3
:1034900023024FBF821B930B089578941F921FB68F
:1034A0001F9211248F939F93AF93BF93809120021B
:1034B00090912102A0912202B09123020196A11DB8
:1034C000B11D8093200290932102A0932202B09319
:1034D0002302BF91AF919F918F911F901FBE1F90AC
:1034E000189587E797E7909301088093000888E193
:1034F0009AE00FB6F894A895809360000FBE909361
:103500006000FFCF90938D0180938C01089580918E
:1035100016020895CF93DF9300D00F92CDB7DEB798
:1035200090912802943011F589837B836A8390936C
:10353000E9008FEF9091E800815095FD06C095ED70
:103540009A95F1F700008111F5CF8091E80085FF91
:103550000DC050E040E063E070E0CE0101960E94B3
:10356000031D8091E8008E778093E8000F900F9004
:103570000F90DF91CF910895BC0184E00C948A1ADA
:10358000BC0183E00C948A1A9C0184E08093E900DA
:103590009FEF8091E800915085FD06C085ED8A95EA
:1035A000F1F700009111F5CF8091E80085FF0CC084
:1035B00050E040E066E070E0C9010E94031D809188
:1035C000E8008E778093E8000895CF93DF93EC01B5
:1035D00081E08093E9008FEF9091E800815095FDA4
:1035E00006C095ED9A95F1F700008111F5CF809115
:1035F000E80085FF14C050E040E068E070E0CE01D4
:103600000E94031D8091E8008E778093E80088E097
:10361000FE01AEE0B2E001900D928A95E1F7DF91F4
:10362000CF910895CF93FC01603221F5809128025B
:10363000843001F5C091E900CF702091EC00922F09
:10364000917020FD90E8C92B82E08093E900809181
:10365000E80080FF0CC050E040E060E270E0CF0185
:103660000E94031D8091E8008E778093E800CF7060
:10367000C093E900CF91089580912702811109C07C
:103680000E94E21E0E943F1F8091E20084608093AE
:10369000E20008951092270208950895089508956C
:1036A00042E061EC81E00E945E1E42E261EC84E057
:1036B0000E945E1E42E261EC82E00E945E1E42E2D7
:1036C00060EC83E00C945E1E80912A02833009F442
:1036D00061C030F48130D1F1823009F49DC0089589
:1036E0008A3009F489C08B3009F46FC0893009F041
:1036F00050C080912902813209F04BC080912D0287
:1037000090912E02009719F0029709F042C0809123
:10371000E800877F8093E8008091E80082FF35C051
:103720009091F3008091F200029729F48091F100CA
:103730008B7F813021F48091F1008093160280917B
:10374000E8008B778093E8000C94921E8091290208
:10375000813AF9F48091E800877F8093E8008091B6
:103760002D0290912E02892B61F468E08EE092E0A8
:1037700070E00E94A11D8091E8008B778093E800A3
:10378000089560E090E080E0F3CF809128028111FD
:10379000C3CF089580912902813AD9F780912D02F3
:1037A00090912E02892BA9F78091E800877F809362
:1037B000E8008091E80080FFFCCF809114018093A5
:1037C000F1008091E8008E77BDCF8091290281328F
:1037D00001F780912D0290912E02892BD1F68091D4
:1037E000E800877F8093E8000E94921E80912B0260
:1037F000809314010C94C41280912902813249F6FD
:103800008091E800877F8093E8000E94921E80915B
:103810002C0280931702089580912902813A09F0C1
:10382000B8CF8091E800877F8093E8008091E8001E
:1038300080FFFCCF80911702C2CFCDB7DEB7A09733
:103840000FB6F894DEBF0FBECDBF84B7877F84BFAD
:103850000FB6F894A895809160008861809360000D
:10386000109260000FBE80E890E00FB6F89480934D
:103870006100909361000FBE0E94C60E0E94E21E7E
:103880000E943F1F8091E20084608093E200789460
:103890000E94C8210E94DA0E8AE091E00E944F0E39
:1038A00013E0809128028530B9F00E94E20E8091E9
:1038B00028028430C1F00E94D60EF3CF0E94A819CE
:1038C00080912602882341F00E94D719882321F095
:1038D0000E94ED1C0E94C41280912802853071F371
:1038E0000E94EE19E2CF1093E9008091E80082FF78
:1038F000E2CF8091E80090E085FF09C050E040E011
:1039000060E270E0CE0101960E94521D91E080912C
:10391000E8008B778093E800992369F260E2CE019A
:1039200001960E94070AC7CF0C94961C292F3327B3
:103930002330310521F168F42130310509F443C009
:103940002230310509F444C090E080E030E020E00E
:1039500026C02132310551F122323105A9F76330F9
:10396000710590F7FB01EE0FFF1FE058FE4F20811D
:10397000318163587E4FFB01808190E010C0992710
:103980008130910581F0009729F00297E9F6E4EA89
:10399000F1E002C0EEECF1E0849190E09F01FA01C9
:1039A000318320830895E0EBF1E0F6CF63307105B9
:1039B00058F6660F771FFB01EA57FE4F20813181D1
:1039C00089E090E0ECCF82E190E02DE232E0E7CFB9
:1039D0008BE590E022ED31E0E2CF80E189BD82E12C
:1039E00089BD09B400FEFDCF8091D8008F7D809302
:1039F000D8008091E00082608093E0008091E00038
:103A000081FDFCCF0895AF92BF92CF92DF92FF92DB
:103A10000F931F93CF93DF936C01EB018A010E94F8
:103A2000B11EF82E811123C00115110539F0F801DE
:103A300080819181C81BD90BC80ED91EB12CA12C35
:103A40002097A9F08091E80085FD22C08091E800D0
:103A50008E778093E80001151105A1F0F8018081AF
:103A60009181A80EB91EB182A08285E0F82E8F2D1B
:103A7000DF91CF911F910F91FF90DF90CF90BF907A
:103A8000AF9008950E94B11E8823D1F2F82EEFCF97
:103A9000F60181916F018093F1002197FFEFAF1A3A
:103AA000BF0ACECFAF92BF92CF92DF92FF920F9319
:103AB0001F93CF93DF936C01EB018A010E94B11E2B
:103AC000F82E811123C00115110539F0F80180810C
:103AD0009181C81BD90BC80ED91EB12CA12C2097DF
:103AE000A9F08091E80085FD22C08091E8008B77E5
:103AF0008093E80001151105A1F0F8018081918102
:103B0000A80EB91EB182A08285E0F82E8F2DDF911C
:103B1000CF911F910F91FF90DF90CF90BF90AF900A
:103B200008950E94B11E8823D1F2F82EEFCF809124
:103B3000F100F60181936F012197FFEFAF1ABF0AE1
:103B4000CECFFC0180912F0290913002861797070B
:103B5000A0F06115710529F49091E8009E7790938B
:103B6000E80090E06115710551F4911108C0809151
:103B7000E80082FF34C080E00895BC01F2CF80915C
:103B800028028823C1F18530C1F18091E80083FDCE
:103B900030C08091E80082FDEACF8091E80080FF8C
:103BA000E1CF8091F3002091F200382F611571056B
:103BB00019F02830310558F091E02830310509F02E
:103BC00090E02091E8002E772093E800CBCF819100
:103BD0008093F100615071092F5F3F4FE7CF8091D3
:103BE0002802882341F0853041F08091E80083FF6E
:103BF000BECF81E0089582E0089583E00895FC013E
:103C000080912F029091300286179707A0F06115DE
:103C1000710529F48091E8008E778093E80090E0A8
:103C20006115710551F4911108C08091E80082FF7F
:103C300035C080E00895BC01F2CF8091280288232E
:103C4000C9F18530C9F18091E80083FD31C08091D0
:103C5000E80082FDEACF8091E80080FFE1CF80910B
:103C6000F3002091F200382F6115710519F028300A
:103C7000310558F091E02830310509F090E080914D
:103C8000E8008E778093E800CBCF84918093F10099
:103C90003196615071092F5F3F4FE6CF8091280226
:103CA000882341F0853041F08091E80083FFBDCF4B
:103CB00081E0089582E0089583E00895982F973079
:103CC00028F08F708093E90081E008959093E900D7
:103CD000242F762F50E0981731F07091EC0020914E
:103CE000ED005091F00021FD02C09F5FE8CF3091C0
:103CF000EB003E7F3093EB003091ED003D7F309341
:103D0000ED003091EB0031603093EB007093EC00EC
:103D10002093ED005093F0002091EE0027FDE5CFB9
:103D200080E008958091290287FF13C08091E80008
:103D300082FF06C08091E8008B778093E80004C082
:103D4000809128028111F2CF089580912802882362
:103D5000D9F38091E80080FFF8CF8091E8008E775A
:103D6000ECCF2091E4003091E50095E6A901209187
:103D7000EC00822F817020FF06C08091E80080FF58
:103D800006C080E008952091E80022FD1AC08091CD
:103D90002802882389F0853089F08091EB0085FD29
:103DA0000FC02091E4003091E50042175307F9F26B
:103DB0009150E1F684E0089582E0089583E008954B
:103DC00081E008950E94501F0E94581FE0EEF0E02D
:103DD000808181608083E8EDF0E080818F7780834F
:103DE00019BCA7EDB0E08C918E7F8C9380818F7E83
:103DF00080831092270208950F931F93CF93DF9330
:103E00000E94501F0E94581FC8EDD0E088818F7714
:103E1000888388818068888388818F7D888319BCA6
:103E2000109228021092240210922602109225026B
:103E300000EE10E0F80180818B7F808388818160B3
:103E4000888342E060E080E00E945E1EE1EEF0E0E8
:103E500080818E7F8083E2EEF0E0808181608083CC
:103E6000808188608083F80180818E7F8083888153
:103E700080618883DF91CF911F910F910895E8EDC4
:103E8000F0E080818F7E8083E7EDF0E080818160CB
:103E9000808384E082BF81E0809327020C94FC1E23
:103EA000E8EDF0E080818E7F80831092E20008953B
:103EB0001092DA001092E10008951F920F920FB64F
:103EC0000F9211242F933F934F935F936F937F93A0
:103ED0008F939F93AF93BF93EF93FF938091E100F4
:103EE00082FF0BC08091E20082FF07C08091E10059
:103EF0008B7F8093E1000E94C7218091DA0080FFD0
:103F000019C08091D80080FF15C08091DA008E7FA3
:103F10008093DA008091D90080FF96C080E189BD4E
:103F200082E189BD09B400FEFDCF81E080932802C3
:103F30000E943C1B8091E10080FF19C08091E2004B
:103F400080FF15C08091E2008E7F8093E200809117
:103F5000E20080618093E2008091D80080628093CB
:103F6000D80019BC85E0809328020E944E1B8091E6
:103F7000E10084FF2BC08091E20084FF27C080E134
:103F800089BD82E189BD89B5982F917080FFFBCFF3
:103F90008091D8008F7D8093D8008091E1008F7E42
:103FA0008093E1008091E2008F7E8093E200809117
:103FB000E20081608093E20080912402882309F46A
:103FC00049C084E0809328020E944F1B8091E10049
:103FD00083FF29C08091E20083FF25C08091E1002A
:103FE000877F8093E10082E0809328021092240270
:103FF0008091E1008E7F8093E1008091E2008E7FCE
:104000008093E2008091E20080618093E20042E0D0
:1040100060E080E00E945E1E8091F00088608093E6
:10402000F0000E944D1BFF91EF91BF91AF919F91C6
:104030008F917F916F915F914F913F912F910F9051
:104040000FBE0F901F90189519BC109228020E9465
:104050004A1B70CF8091E30087FD93E09093280284
:10406000B3CF1F920F920FB60F9211242F933F934D
:104070004F935F936F937F938F939F93AF93BF9370
:10408000CF93DF93EF93FF93D091E900DF7080919E
:10409000EC00C82FC17080FDC0E81092E90080914B
:1040A000F000877F8093F00078940E947520109232
:1040B000E9008091F00088608093F000CD2BCF70F4
:1040C000C093E900FF91EF91DF91CF91BF91AF9144
:1040D0009F918F917F916F915F914F913F912F9120
:1040E0000F900FBE0F901F9018951F93CF93DF93E3
:1040F000CDB7DEB7AA970FB6F894DEBF0FBECDBF1F
:1041000089E292E02091F100FC012193CF01F2E0DD
:1041100081339F07B9F70E94641B8091E80083FFF9
:104120001EC18091290290912A029A3008F017C18D
:10413000E92FF0E0E757FD4D0C94F721803899F016
:10414000823809F00CC180912D028F70873008F001
:1041500006C18093E9008091EB0085FB882780F9F8
:104160001092E90006C080912502909126029111DB
:1041700082609091E800977F9093E8008093F1002F
:104180001092F1008091E8008E77E5C0882309F451
:10419000D3C0823009F0E3C080912B028111D6C0D8
:1041A00080912D028F702FEF280F263008F0D7C096
:1041B0008093E9002091EB0020FFC8C0933031F4D8
:1041C0008091EB0080628093EB00C0C09091EB0087
:1041D00090619093EB0021E030E001C0220F8A95BE
:1041E000EAF72093EA001092EA008091EB008860E1
:1041F000EACF8111B4C010912B021F778091E300A8
:104200008078812B8093E3008091E800877F809302
:10421000E8000E94921E8091E80080FFFCCF809110
:10422000E30080688093E30082E0111183E08093D3
:10423000280295C08058823008F091C080912B02EE
:1042400090912C028C3D23E09207A1F583E08A83B4
:104250008AE289834FB7F894DE01139620E03EE0AE
:1042600051E2E32FF0E050935700E49120FF03C0A8
:10427000E295EF703F5FEF708E2F90E0EA30C0F074
:10428000C7968D939D932F5F243159F74FBF80912F
:10429000E800877F8093E8006AE270E0CE01019633
:1042A0000E94A11D8091E8008B778093E80057C0A1
:1042B000C096E7CF60912D0270912E02AE014F5F44
:1042C0005F4F0E94941CBC01892B09F448C0909157
:1042D000E800977F9093E80089819A810E94FF1DF2
:1042E000E1CF8038E1F58091E800877F8093E80096
:1042F000809124028093F10045CF811130C09091CC
:104300002B02923060F58091E800877F8093E8006F
:10431000909324020E94921E80912402882311F01F
:1043200084E005C08091E30087FDFACF81E08093AF
:1043300028020E94501B13C080912B02813079F417
:1043400081E0933009F080E0809326021092E9002A
:104350008091E800877F8093E8000E94921E809100
:10436000E80083FF0AC08091E800877F8093E8001F
:104370008091EB0080628093EB00AA960FB6F894D0
:10438000DEBF0FBECDBFDF91CF911F91089508957D
:10439000CF93809128028823A1F0C091E900CF70CB
:1043A0009091EC00892F817090FD80E8C82B1092CD
:1043B000E9008091E80083FD0E947520CF70C093D2
:1043C000E900CF91089597FB072E16F4009407D0CB
:1043D00077FD09D00E94042207FC05D03EF4909599
:1043E00081959F4F0895709561957F4F0895EE0FC9
:1043F000FF1F0590F491E02D0994692796276927FE
:104400007827872778270895AA1BBB1B51E107C08F
:10441000AA1FBB1FA617B70710F0A61BB70B881F54
:10442000991F5A95A9F780959095BC01CD010895E3
:10443000F999FECF92BD81BDF89A992780B508956C
:10444000A8E1B0E042E050E00C944C22262FF9990C
:10445000FECF92BD81BDF89A019700B4021639F0E3
:104460001FBA20BD0FB6F894FA9AF99A0FBE0895B4
:104470000396272F0E9427220E942622252F0E9482
:104480002722242F0C9427220196272F0E942722CF
:104490000C942622DC01CB01FC01F999FECF06C069
:1044A000F2BDE1BDF89A319600B40D9241505040F2
:1044B000B8F70895F894FFCF160A200A450A510A62
:1044C0005C0A670A6A0A6A0A6A0A6A0A6A0A6D0A5A
:1044D000710A790A860A930A960A990AA60A9D1011
:1044E0009D10F510F51047116311CA10CA106E1116
:1044F000FA1109120912D312D312DC12DC12DE12E5
:10450000DC12DC12DC12D312D312E312DC12DC1246
:10451000E3129E20C620AF21C620AF21F9201A2128
:06452000AF2171217D2195
:104526002808641E140A321E0102871AE51AC41AE4
:10453600C01ABC1A01E200E900EA00B500B600B7ED
:1045460000CD008301CC008A01920194012102234F
:104556000224022502260227022A02B300B4006FB3
:10456600007000818283919293F5F490E200E90055
:10457600EA00B500B600B700CD008301CC008A0181
:104586009201940121022302240225022602270217
:104596002A02B300B4006F00700081828340227B40
:0C45A600DC023F026102E401FD011D0285
:00000001FF
